{
  "contractName": "CIDsOwners",
  "abi": [
    {
      "inputs": [
        {
          "internalType": "string",
          "name": "cid",
          "type": "string"
        }
      ],
      "name": "register",
      "outputs": [],
      "stateMutability": "nonpayable",
      "type": "function"
    },
    {
      "inputs": [
        {
          "internalType": "address",
          "name": "owner",
          "type": "address"
        }
      ],
      "name": "getOwnedCIDs",
      "outputs": [
        {
          "internalType": "string[]",
          "name": "cids",
          "type": "string[]"
        }
      ],
      "stateMutability": "view",
      "type": "function"
    }
  ],
  "bytecode": "0x608060405234801561001057600080fd5b5061082d806100206000396000f3fe608060405234801561001057600080fd5b50600436106100365760003560e01c80635ba52c961461003b578063f2c298be1461006b575b600080fd5b61005560048036038101906100509190610284565b610087565b6040516100629190610403565b60405180910390f35b6100856004803603810190610080919061048a565b61019e565b005b60606000808373ffffffffffffffffffffffffffffffffffffffff1673ffffffffffffffffffffffffffffffffffffffff168152602001908152602001600020805480602002602001604051908101604052809291908181526020016000905b8282101561019357838290600052602060002001805461010690610506565b80601f016020809104026020016040519081016040528092919081815260200182805461013290610506565b801561017f5780601f106101545761010080835404028352916020019161017f565b820191906000526020600020905b81548152906001019060200180831161016257829003601f168201915b5050505050815260200190600101906100e7565b505050509050919050565b6000803373ffffffffffffffffffffffffffffffffffffffff1673ffffffffffffffffffffffffffffffffffffffff168152602001908152602001600020828290918060018154018082558091505060019003906000526020600020016000909192909192909192909192509182610217929190610727565b505050565b600080fd5b600080fd5b600073ffffffffffffffffffffffffffffffffffffffff82169050919050565b600061025182610226565b9050919050565b61026181610246565b811461026c57600080fd5b50565b60008135905061027e81610258565b92915050565b60006020828403121561029a5761029961021c565b5b60006102a88482850161026f565b91505092915050565b600081519050919050565b600082825260208201905092915050565b6000819050602082019050919050565b600081519050919050565b600082825260208201905092915050565b60005b838110156103175780820151818401526020810190506102fc565b60008484015250505050565b6000601f19601f8301169050919050565b600061033f826102dd565b61034981856102e8565b93506103598185602086016102f9565b61036281610323565b840191505092915050565b60006103798383610334565b905092915050565b6000602082019050919050565b6000610399826102b1565b6103a381856102bc565b9350836020820285016103b5856102cd565b8060005b858110156103f157848403895281516103d2858261036d565b94506103dd83610381565b925060208a019950506001810190506103b9565b50829750879550505050505092915050565b6000602082019050818103600083015261041d818461038e565b905092915050565b600080fd5b600080fd5b600080fd5b60008083601f84011261044a57610449610425565b5b8235905067ffffffffffffffff8111156104675761046661042a565b5b6020830191508360018202830111156104835761048261042f565b5b9250929050565b600080602083850312156104a1576104a061021c565b5b600083013567ffffffffffffffff8111156104bf576104be610221565b5b6104cb85828601610434565b92509250509250929050565b7f4e487b7100000000000000000000000000000000000000000000000000000000600052602260045260246000fd5b6000600282049050600182168061051e57607f821691505b602082108103610531576105306104d7565b5b50919050565b600082905092915050565b7f4e487b7100000000000000000000000000000000000000000000000000000000600052604160045260246000fd5b60008190508160005260206000209050919050565b60006020601f8301049050919050565b600082821b905092915050565b6000600883026105d37fffffffffffffffffffffffffffffffffffffffffffffffffffffffffffffffff82610596565b6105dd8683610596565b95508019841693508086168417925050509392505050565b6000819050919050565b6000819050919050565b600061062461061f61061a846105f5565b6105ff565b6105f5565b9050919050565b6000819050919050565b61063e83610609565b61065261064a8261062b565b8484546105a3565b825550505050565b600090565b61066761065a565b610672818484610635565b505050565b5b818110156106965761068b60008261065f565b600181019050610678565b5050565b601f8211156106db576106ac81610571565b6106b584610586565b810160208510156106c4578190505b6106d86106d085610586565b830182610677565b50505b505050565b600082821c905092915050565b60006106fe600019846008026106e0565b1980831691505092915050565b600061071783836106ed565b9150826002028217905092915050565b6107318383610537565b67ffffffffffffffff81111561074a57610749610542565b5b6107548254610506565b61075f82828561069a565b6000601f83116001811461078e576000841561077c578287013590505b610786858261070b565b8655506107ee565b601f19841661079c86610571565b60005b828110156107c45784890135825560018201915060208501945060208101905061079f565b868310156107e157848901356107dd601f8916826106ed565b8355505b6001600288020188555050505b5050505050505056fea264697066735822122009ee213768b2e7d416c3a987e8f3dfceee798c487255ffeebd0f51571c92d12264736f6c63430008120033",
  "immutableReferences": {},
  "source": "// SPDX-License-Identifier: MIT\n\npragma solidity >=0.8.18 <0.9.0;\n\n/**\n * @title CIDsOnwers\n * @dev Register owner of IPFS CIDs\n */\ncontract CIDsOwners {\n    mapping(address owner => string[] cids) uploadedFiles;\n\n    /**\n     * @dev Register a CID owned by sender\n     * @param cid content identifier for the upload file to register\n     */\n    function register(string calldata cid) public {\n        uploadedFiles[msg.sender].push(cid);\n    }\n\n    /**\n      * @dev Retrieves the list of CIDs belonging to owner.\n      * @param owner of the returned list of CIDs.\n      * @return cids List of CIDs.\n      */\n    function getOwnedCIDs(address owner) public view returns (string[] memory cids) {\n        return uploadedFiles[owner];\n    }\n}\n",
  "sourcePath": "/hostmachine/workspace/projects/ifraixedes/dev/companies-candidates-test/chainsafe/ipfs-upload-smart-contract-cid/smart-contracts/contracts/CIDsOWners.sol",
  "compiler": {
    "name": "solc",
    "version": "0.8.18+commit.87f61d96.Linux.g++"
  },
  "schemaVersion": "3.4.11",
  "updatedAt": "2023-02-11T14:31:45.793Z",
  "devdoc": {
    "details": "Register owner of IPFS CIDs",
    "kind": "dev",
    "methods": {
      "getOwnedCIDs(address)": {
        "details": "Retrieves the list of CIDs belonging to owner.",
        "params": {
          "owner": "of the returned list of CIDs."
        },
        "returns": {
          "cids": "List of CIDs."
        }
      },
      "register(string)": {
        "details": "Register a CID owned by sender",
        "params": {
          "cid": "content identifier for the upload file to register"
        }
      }
    },
    "title": "CIDsOnwers",
    "version": 1
  },
  "userdoc": {
    "kind": "user",
    "methods": {},
    "version": 1
  }
}